{
    "contractName": "Lottery",
    "abi": [
        {
            "inputs": [],
            "stateMutability": "nonpayable",
            "type": "constructor"
        },
        {
            "inputs": [],
            "name": "getBalance",
            "outputs": [
                {
                    "internalType": "uint256",
                    "name": "",
                    "type": "uint256"
                }
            ],
            "stateMutability": "view",
            "type": "function"
        },
        {
            "inputs": [],
            "name": "manager",
            "outputs": [
                {
                    "internalType": "address",
                    "name": "",
                    "type": "address"
                }
            ],
            "stateMutability": "view",
            "type": "function"
        },
        {
            "inputs": [],
            "name": "participate",
            "outputs": [],
            "stateMutability": "payable",
            "type": "function"
        },
        {
            "inputs": [
                {
                    "internalType": "uint256",
                    "name": "",
                    "type": "uint256"
                }
            ],
            "name": "players",
            "outputs": [
                {
                    "internalType": "address payable",
                    "name": "",
                    "type": "address"
                }
            ],
            "stateMutability": "view",
            "type": "function"
        },
        {
            "inputs": [],
            "name": "winner",
            "outputs": [
                {
                    "internalType": "address payable",
                    "name": "",
                    "type": "address"
                }
            ],
            "stateMutability": "view",
            "type": "function"
        }
    ],
    "bytecode": "608060405234801561001057600080fd5b50600080546001600160a01b03191633179055610271806100326000396000f3fe60806040526004361061004a5760003560e01c806312065fe01461004f578063481c6a7514610077578063d11711a2146100af578063dfbf53ae146100b9578063f71d96cb146100d9575b600080fd5b34801561005b57600080fd5b506100646100f9565b6040519081526020015b60405180910390f35b34801561008357600080fd5b50600054610097906001600160a01b031681565b6040516001600160a01b03909116815260200161006e565b6100b761015e565b005b3480156100c557600080fd5b50600254610097906001600160a01b031681565b3480156100e557600080fd5b506100976100f4366004610222565b6101f8565b600080546001600160a01b031633146101595760405162461bcd60e51b815260206004820152601760248201527f596f7520617265206e6f7420746865206d616e6167657200000000000000000060448201526064015b60405180910390fd5b504790565b34670de0b6b3a7640000146101b55760405162461bcd60e51b815260206004820152601760248201527f506c65617365205061792031206574686572206f6e6c790000000000000000006044820152606401610150565b6001805480820182556000919091527fb10e2d527612073b26eecdfd717e6a320cf44b4afac2b0732d9fcbe2b7fa0cf60180546001600160a01b03191633179055565b6001818154811061020857600080fd5b6000918252602090912001546001600160a01b0316905081565b60006020828403121561023457600080fd5b503591905056fea2646970667358221220c150f3bb21eee87d5a7dd0337f90fb6e5962c638a1468aa49b1359ee14742f9864736f6c63430008130033",
    "sourcePath": "c:/Users/Yuvraj Sahni/Documents/Lottery smart contract/Lottery.sol",
    "compiler": {
        "name": "solc",
        "version": "0.8.19+commit.7dd6d404"
    },
    "functionHashes": {
        "getBalance()": "12065fe0",
        "manager()": "481c6a75",
        "participate()": "d11711a2",
        "players(uint256)": "f71d96cb",
        "winner()": "dfbf53ae"
    },
    "gasEstimates": {
        "creation": {
            "codeDepositCost": "125000",
            "executionCost": "24406",
            "totalCost": "149406"
        },
        "external": {
            "getBalance()": "2361",
            "manager()": "2337",
            "participate()": "48635",
            "players(uint256)": "4680",
            "winner()": "2381"
        },
        "internal": {
            "random()": "infinite"
        }
    }
}